:100000004BC0000067C0000065C0000063C0000076
:1000100061C000005FC000005DC000005BC0000068
:1000200059C0000057C0000055C000000C940C0BD4
:1000300051C0000076C100004DC000004BC0000060
:10004000DAC1000047C0000045C0000043C0000006
:100050000C94C0080C94B40A3DC000003BC00000E2
:1000600039C0000037C0000035C0000033C00000B8
:100070000C94EA080C94DC0A2DC000002BC0000090
:10008000F3C0000027C0000025C000006364696E53
:100090006F70737578585B0011241FBECFEFD0E4EA
:1000A000DEBFCDBF12E0A0E0B1E0EEE7F8E200E095
:1000B0000BBF02C007900D92A438B107D9F713E027
:1000C000A4E8B2E001C01D92A930B107E1F77DD3E9
:1000D0000C943D1495CF11B811B81AB80A9A089A21
:1000E000559A129A109A5D9A28EC30E01092BA0252
:1000F0001092BB021092BC021092BD028091BA0213
:100100009091BB02A091BC02B091BD028D3B954184
:10011000A105B105A0F48091BA029091BB02A09113
:10012000BC02B091BD020196A11DB11D8093BA021F
:100130009093BB02A093BC02B093BD02DFCF2150CD
:1001400031092115310591F6129810985D98109299
:10015000890210928A0210928B0210928C021092E5
:100160008D0210928E0210928F02109290021092C5
:1001700085021092860210928702109288020895DA
:100180001F93CF93DF93182FEB0177FF05C08CE30C
:1001900091E00E94E60D64C0CB0164E670E00E942D
:1001A000CB0BC81BD90BDF93CF9327E531E03F93EF
:1001B0002F930E94D50D0F900F900F900F90123536
:1001C00019F0113409F048C0209711F411B801C09A
:1001D0000A9AD0930601C0930501193521F420979E
:1001E00029F411B804C01134C9F5F9CF089ACE0129
:1001F00064E670E00E94CB0B7093020160930101F2
:10020000173421F4209729F41AB80AC0113441F5A3
:10021000F9CF559AC13A8FE0D80714F0C0EADFE071
:10022000D0930401C09303011C161D06CCF423E1F6
:100230002C9FC0012D9F900D1124909387008093D7
:10024000860080918600909187009695879590937F
:1002500089008093880004C0193509F2173491F29F
:10026000DF91CF911F9108951F920F920FB60F92B9
:1002700011240BB60F922F933F934F935F936F937D
:100280007F938F939F93AF93BF93EF93FF9360916F
:100290009702709198028091990290919A026F5FF3
:1002A0007F4F8F4F9F4F6093970270939802809378
:1002B000990290939A02209101013091020140E04D
:1002C00050E00E94DE0B672B682B692BB9F482B1DA
:1002D00091E0892782B98091850290918602A09150
:1002E0008702B09188020196A11DB11D80938502FD
:1002F00090938602A0938702B0938802FF91EF91BA
:10030000BF91AF919F918F917F916F915F914F912D
:100310003F912F910F900BBE0F900FBE0F901F902B
:1003200018951F920F920FB60F9211248F939F93DF
:10033000AF93BF938091890290918A02A0918B0222
:10034000B0918C020196A11DB11D809389029093FA
:100350008A02A0938B02B0938C02BF91AF919F91C0
:100360008F910F900FBE0F901F90189522E824BD1B
:1003700084E085BD8EE487BD42E040936E0010921C
:10038000930210929402109295021092960280E8C5
:10039000809390008BE08093910082E19AE79093A4
:1003A00099008093980040937100109297021092E8
:1003B00098021092990210929A022093800085E18F
:1003C00080938100209103013091040153E1529FF9
:1003D000C001539F900D1124E6E8F0E091838083E3
:1003E000808191819695879590938900809388006C
:1003F00040936F0008951F920F920FB60F92112431
:100400000BB60F922F933F934F935F936F937F930E
:100410008F939F93AF93BF93EF93FF93609193025A
:100420007091940280919502909196026F5F7F4F38
:100430008F4F9F4F60939302709394028093950225
:1004400090939602209105013091060140E050E022
:100450000E94DE0B672B682B692B31F481E090E062
:100460009093920280939102FF91EF91BF91AF918F
:100470009F918F917F916F915F914F913F912F91BC
:100480000F900BBE0F900FBE0F901F90189580918C
:1004900007018F5F80930701089582E07BD481116B
:1004A00003C00E947E0AF9CF0895462FBC0182E066
:1004B0000E94B20AF2CF40E855E260E070E082E0CC
:1004C0006FD740E26EEB72E082E058D668E170E0F0
:1004D00088E791E0EADF6BE170E081E991E0E5CF48
:1004E000A4E2B0E0E6E7F2E00C940E0C9E012F5D72
:1004F0003F4F3F932F939E012C5D3F4F3F932F9390
:100500009E012D5D3F4F3F932F932DEA31E03F93A6
:100510002F939F938F930E94410E8AA18F9389A15D
:100520008F932CA1822F992787FD90959F932F93CE
:100530002BA1822F992787FD90959F932F9386EB70
:1005400091E09F938F938E010F5F1F4F1F930F9327
:100550000E94130EBC01C801A8DF8CA19FE9980F6F
:100560000FB6F894DEBF0FBECDBF9A3110F490E203
:1005700001C090E0891B8CA3873469F01CF481349E
:1005800051F004C0823539F0893529F067E170E017
:1005900088EC91E0CDC09BA19A3509F48BC02CF476
:1005A000903581F0943551F0BFC0943739F09A37C7
:1005B00009F480C0903709F0B7C004C069A17AA1DE
:1005C000DFDDB7C0873409F453C084F5813409F006
:1005D0006CC0809188028F93809187028F93809165
:1005E00086028F93809185028F9380918C028F93E6
:1005F00080918B028F9380918A028F9380918902E0
:100600008F93809190028F9380918F028F9380912E
:100610008E028F9380918D028F9383E192E09F935E
:100620008F931F930F930E94130E36C0823589F06B
:100630008935D9F5809188028F93809187028F93B5
:10064000809186028F93809185028F9382E092E061
:100650001DC0809190028F9380918F028F93809123
:100660008E028F9380918D028F9380EE91E00EC069
:1006700080918C028F9380918B028F9380918A025C
:100680008F93809189028F9381EF91E09F938F9355
:100690001F930F930E94130EBC01C80106DF0FB613
:1006A000F894DEBF0FBECDBF44C06BE170E08FE2B7
:1006B00092E03EC0873409F19CF4813481F51092B8
:1006C0008502109286021092870210928802109280
:1006D000890210928A0210928B0210928C0216C02C
:1006E0008235A1F08935D9F41092850210928602E4
:1006F00010928702109288021CC0109289021092F8
:100700008A0210928B0210928C0213C010928D02FA
:1007100010928E0210928F02109290020AC06BE12A
:1007200070E08BE492E004C06BE170E087E692E059
:10073000BCDE6BE170E081E991E0B7DEA496E4E015
:100740000C942A0CA0E2B0E0E8EAF3E00C94100C60
:1007500082E010D39091DE0220919B0230919C02A6
:100760008917D9F0A1E0B0E0AC0FBD1FA20FB31FF5
:10077000E92FF0E0E254FD4F80818C932F5F3F4FD3
:1007800030939C0220939B029F3119F41092DE0259
:10079000DFCF9F5F9093DE02DBCF2115310589F01B
:1007A0002130310551F0E1E0F0E0EC0FFD1FE20FE8
:1007B000F31F1082CE01019693DE10929C021092DC
:1007C0009B02A096E2E00C942C0CD2D284DCCEDD0D
:1007D00072DE63D1789414E0C6E3D1E082B1812760
:1007E00082B980918D0290918E02A0918F02B0917A
:1007F00090020196A11DB11D80938D0290938E02EF
:10080000A0938F02B093900260E080E065D1809168
:100810008D0290918E02A0918F02B0919002BF93B1
:10082000AF939F938F93DF93CF930E94D50D0F903B
:100830000F900F900F900F900F9024E630E01092E1
:10084000BA021092BB021092BC021092BD028091BB
:10085000BA029091BB02A091BC02B091BD028D3B47
:100860009541A105B105A0F48091BA029091BB0217
:10087000A091BC02B091BD020196A11DB11D809353
:10088000BA029093BB02A093BC02B093BD02DFCF2B
:10089000215031092115310591F630D653DF9ECF15
:1008A00080E090E0089581E090E06F9364E06A95C5
:1008B000F1F76F910197C9F708950F931F93CF93A5
:1008C000DF9317B13D982898299AC0E0D0E0EBDF7C
:1008D0002A9AE9DF06B12A98E6DF2A9AE4DF2A9805
:1008E000249605FF10C09E0140E050E08091A102D7
:1008F0009091A202A091A302B091A40228173907F7
:100900004A075B0720F39E0140E050E08091A1027E
:100910009091A202A091A302B091A40228173907D6
:100920004A075B0728F082E390E0A0E0B0E004C053
:1009300080E395E7A0E0B0E08093A1029093A2024B
:10094000A093A302B093A40217B9DF91CF911F9196
:100950000F91089528B190E08F709070880F991FC3
:10096000880F991F237C282B28B92A9A9CDF2A9864
:100970009ACFA2E0B0E0EEEBF4E04FC7182F4A8325
:10098000698357D09ADFF7B008B1299869814A8105
:10099000662311F0289A01C0289887B18C6387B923
:1009A000413021F0812F82958F70D4DF812F8F709D
:1009B000D1DFF7B808B92296E5E04BC760E042E026
:1009C000D8CF61E042E0D5CF60E041E0D2CF3D98A2
:1009D000459A80E395E7A0E0B0E08093A102909370
:1009E000A202A093A302B093A402209A219A229A71
:1009F0008EE190E058D683E0E7DF86E090E053D6C2
:100A000083E0E2DF82E090E04ED683E0DDDF82E04B
:100A100090E049D682E0D8DF82E090E044D688E2D8
:100A2000CDDF88E0CBDF81E0C9DF86E0C7DF8CE087
:100A3000C5CF8091A502882321F481E08093A5028F
:100A4000C6CF089581E0BADF80919D0290919E0209
:100A5000009711F1A0E0B0E208C0E0919D02F09192
:100A60009E02E20FF31FB083AF5F2A2F30E0809128
:100A7000080190E001976091090170E0869FA00154
:100A8000879F500D969F500D1124241735072CF386
:100A90001092A00210929F020895D4CF0895A5E06D
:100AA000B0E0E4E5F5E0BBC6182F80E8898380EC70
:100AB0008A8384E98B8384ED8C83FE01E60FF11D2C
:100AC0008181810F6D837ADF1093A0026D81609325
:100AD0009F022596E3E0BFC6E2CF0895A0E0B0E014
:100AE000E3E7F5E097C6D82E80919D0290919E0293
:100AF000009709F4F2C02D2D2A3009F442C02830A5
:100B0000C9F48091A00281508093A0028F3F51F4DC
:100B100080919F02815080939F02809109018150B2
:100B20008093A00280919F028F3F09F0D1C0109264
:100B30009F02CCC08D2D45DF80919F028823B9F0A4
:100B400090E001974091090150E0849F9001859FBA
:100B5000300D949F300D11248091A002E0919D02F0
:100B6000F0919E02E20FF31FE80FF11DD0828091F9
:100B7000A0028F5F8093A00290910901891709F06C
:100B8000ACC040919F02242F30E08091080190E09A
:100B900001972817390709F096C0C0E0D0E03FC0A0
:100BA00080E06C2F7CDFCC248E010F5F1F4F32C0A2
:100BB000EC2CFF2430E0C29FC001C39F900DD29F58
:100BC000900D1124E0919D02F0919E02EE0DFF1D0B
:100BD000E80FF91F8081F5DE80919D0290919E02C1
:100BE0002091090130E0C29FF001C39FF00DD29F18
:100BF000F00D11248E0D9F1DE80FF91F029FD001EB
:100C0000039FB00D129FB00D1124A80FB91F8C9136
:100C10008083C39420910901C21650F2E8016091CB
:100C20000801862F90E00297C817D9070CF4B8CFB7
:100C30006230D0F1625080E032DF00E010E230C07C
:100C4000C02FD0E08091080190E0029750E0849F8F
:100C50009001859F300D949F300D1124E0919D02ED
:100C6000F0919E02EC0FFD1FE20FF31F8081A9DEC1
:100C70008091080190E002974091090150E0849F23
:100C80009001859F300D949F300D1124E0919D02BD
:100C9000F0919E02EC0FFD1FE20FF31F10830F5F18
:100CA00040910901041760F260910801615080E0F1
:100CB000F6DE10E003C080E284DE1F5F8091090150
:100CC0001817C8F303C04F5F40939F021092A00211
:100CD0008091A00260919F02E2DE2D2D332727FD37
:100CE0003095C901CDB7DEB7E8E0B0C580919D026F
:100CF00090919E02009709F07FD62091080130E084
:100D0000215030408091090190E0AC01249FC00146
:100D1000259F900D349F900D1124D6D590939E025F
:100D200080939D02009719F1A0E0B0E208C0E09125
:100D30009D02F0919E02E20FF31FB083AF5F2A2F56
:100D400030E08091080190E001976091090170E026
:100D5000869FA001879F500D969F500D1124241748
:100D600035072CF38EE695E060E574E0D4C608956F
:100D7000BDCF0895282F30E0F901EE0FFF1F43E0AB
:100D8000220F331F4A95E1F7E20FF31FE65FFE4F94
:100D900082810895282F30E0F901EE0FFF1F73E0E4
:100DA000220F331F7A95E1F7E20FF31FE65FFE4F44
:100DB0004181282F30E0F901EE0FFF1F53E0220F91
:100DC000331F5A95E1F7E20FF31FE65FFE4F81E014
:100DD0009381491380E00895282F30E0F901EE0F48
:100DE000FF1FB3E0220F331FBA95E1F7E20FF31FA5
:100DF000E65FFE4F408551854115510509F452C00B
:100E0000282F30E0F901EE0FFF1F73E0220F331F90
:100E10007A95E1F7E20FF31FE65FFE4F7281282F0C
:100E200030E0F901EE0FFF1FB3E0220F331FBA9538
:100E3000E1F7E20FF31FE65FFE4F9481791790F51B
:100E4000282F30E0F901EE0FFF1F73E0220F331F50
:100E50007A95E1F7E20FF31FE65FFE4F9281490FAB
:100E6000511DFA016083282F30E0F901EE0FFF1FBA
:100E700053E0220F331F5A95E1F7E20FF31FE65FAD
:100E8000FE4F92819F5F282F30E0F901EE0FFF1F88
:100E9000B3E0220F331FBA95E1F7E20FF31FE65FCD
:100EA000FE4F9283282F30E0F901EE0FFF1F73E011
:100EB000220F331F7A95E1F7E20FF31FE65FFE4F33
:100EC0004281282F30E0F901EE0FFF1F53E0220F7F
:100ED000331F5A95E1F7E20FF31FE65FFE4F94814F
:100EE000491701F5282F30E0F901EE0FFF1F93E0BD
:100EF000220F331F9A95E1F7E20FF31FE65FFE4FD3
:100F00009581992379F0282F30E0F901EE0FFF1F2A
:100F1000B3E0220F331FBA95E1F7E20FF31FE65F4C
:100F2000FE4F128208950F931F93182F823009F4F9
:100F300074C0882319F4E1ECF0E002C0E9ECF0E0C1
:100F400080818F778083812F90E0FC01EE0FFF1F5F
:100F500003E0880F991F0A95E1F7E80FF91FE65F94
:100F6000FE4F808591850097A1F1212F30E0F90196
:100F7000EE0FFF1FA3E0220F331FAA95E1F7E20F48
:100F8000F31FE65FFE4F9281212F30E0F901EE0F53
:100F9000FF1F63E0220F331F6A95E1F7E20FF31F93
:100FA000E65FFE4F84819817A0F4112319F4E0EC5A
:100FB000F0E002C0E8ECF0E0808187FF0AC0112376
:100FC00019F4E6ECF0E002C0EEECF0E06081812F75
:100FD00003DF212F30E0F901EE0FFF1F43E0220F66
:100FE000331F4A95E1F7E20FF31FE65FFE4F808162
:100FF000882309F057C0112319F4E1ECF0E002C096
:10100000E9ECF0E08081806880834CC0809123010E
:10101000882319F01092200145C0809126019091FB
:101020002701009709F43EC0909120018091220190
:101030009817C0F58091A602882399F439D380933C
:10104000A60210E00AC031D3E02FF0E03197E11B97
:10105000F109E955FD4F80831F5F0091A60210172B
:1010600090F3A091A602AA23E9F080912001E091DB
:101070002601F0912701E80FF11DA150A093A602CF
:10108000B0E0A955BD4F8C918083809120018F5F86
:10109000809320019091200180912201981709F0FE
:1010A000BCCFB4CF1F910F910895823051F08823A7
:1010B00019F4E1ECF0E002C0E9ECF0E090819F77F8
:1010C0009083A82FB0E0FD01EE0FFF1F53E0AA0FA1
:1010D000BB1F5A95E1F7EA0FFB1FE65FFE4F7187D2
:1010E0006087682F70E0FB01EE0FFF1F93E0660F33
:1010F000771F9A95E1F7E60FF71FE65FFE4F128222
:10110000682F70E0FB01EE0FFF1FA3E0660F771F53
:10111000AA95E1F7E60FF71FE65FFE4F4483482FDD
:1011200050E0FA01EE0FFF1F63E0440F551F6A9570
:10113000E1F7E40FF51FE65FFE4F25838230D9F01B
:10114000282F30E0F901EE0FFF1F43E0220F331F7D
:101150004A95E1F7E20FF31FE65FFE4F9081992376
:1011600051F4882319F4E1ECF0E002C0E9ECF0E07E
:10117000808180688083089521E097CFFDCF089516
:101180001F920F920FB60F920BB60F9211242F934E
:101190003F934F935F936F937F938F939F93AF93FF
:1011A000BF93EF93FF936091C60080E015DEFF913F
:1011B000EF91BF91AF919F918F917F916F915F91CF
:1011C0004F913F912F910F900BBE0F900FBE0F903C
:1011D0001F9018951F920F920FB60F920BB60F9299
:1011E00011242F933F934F935F936F937F938F932C
:1011F0009F93AF93BF93EF93FF936091CE0081E0F5
:10120000EBDDFF91EF91BF91AF919F918F917F9116
:101210006F915F914F913F912F910F900BBE0F9067
:101220000FBE0F901F901895882319F4E1ECF0E0A1
:1012300002C0E9ECF0E08081806280830895882319
:1012400019F4E1ECF0E002C0E9ECF0E080818F7D80
:1012500080830895282F30E0F901EE0FFF1F93E0FF
:10126000220F331F9A95E1F7E20FF31FE65FFE4F5F
:10127000268137812115310591F1282F30E0F901C0
:10128000EE0FFF1FA3E0220F331FAA95E1F7E20F35
:10129000F31FE65FFE4F4181282F30E0F901EE0F8A
:1012A000FF1F63E0220F331F6A95E1F7E20FF31F80
:1012B000E65FFE4F9381491790F4282F30E0F90143
:1012C000EE0FFF1F43E0220F331F4A95E1F7E20FB5
:1012D000F31FE65FFE4F9081992309F4A5CFAFCFAE
:1012E000823029F1282F30E0F901EE0FFF1F53E083
:1012F000220F331F5A95E1F7E20FF31FE65FFE4F0F
:101300009081992349F4882319F4E1ECF0E002C0BC
:10131000E9ECF0E098E908C0882319F4E1ECF0E08A
:1013200002C0E9ECF0E098E1908394DF78940895AE
:10133000882319F0813029F402C080E0D1CF81E008
:10134000CFCF0895A0E0B0E0E7EAF9E064C2D82E7C
:101350007A018B01EDDF8D2D8230F1F0DD2019F463
:10136000C4ECD0E002C0CCECD0E0C801B70128EF5B
:101370003FEF4FEF5FEF00D26050734D8E4C9E4FAA
:10138000A8019701E4E0220F331F441F551FEA957F
:10139000D1F714D239832883CDB7DEB7E7E057C23F
:1013A000D1CF0895282F30E0F901EE0FFF1F73E031
:1013B000220F331F7A95E1F7E20FF31FE65FFE4F2E
:1013C000468157814115510509F465C0282F30E049
:1013D000F901EE0FFF1F93E0220F331F9A95E1F7FB
:1013E000E20FF31FE65FFE4F6181282F30E0F90125
:1013F000EE0FFF1FA3E0220F331FAA95E1F7E20FC4
:10140000F31FE65FFE4F9381691708F044C08823FD
:1014100019F4E0ECF0E002C0E8ECF0E0908195FF18
:101420003AC0882319F4A6ECB0E002C0AEECB0E0FC
:10143000282F30E0F901EE0FFF1F63E0220F331F6A
:101440006A95E1F7E20FF31FE65FFE4F9181490FC6
:10145000511DFA0190819C93282F30E0F901EE0F85
:10146000FF1F93E0220F331F9A95E1F7E20FF31F5E
:10147000E65FFE4F91819F5F282F30E0F901EE0F6C
:10148000FF1FA3E0220F331FAA95E1F7E20FF31F1E
:10149000E65FFE4F9183DECE1F93182F823021F03E
:1014A000CEDE812F7FDF1CC0809124019091250129
:1014B0000097B1F030911F0120912101321780F483
:1014C00006C080911F018F5F80931F01EDCF209197
:1014D0001F01820F911DFC018081EED0882389F7C6
:1014E0001F91089580E0D8DF81E0D6DF82E0D4DF6D
:1014F00080E019DD81E017DD82E015CDF3CF08959E
:10150000282F30E0F901EE0FFF1F93E0220F331F69
:101510009A95E1F7E20FF31FE65FFE4F778366834C
:10152000282F30E0F901EE0FFF1FA3E0220F331F39
:10153000AA95E1F7E20FF31FE65FFE4F1182282F15
:1015400030E0F901EE0FFF1F63E0220F331F6A95B1
:10155000E1F7E20FF31FE65FFE4F4383823009F0AD
:1015600079CE0895CDCF08951F920F920FB60F92A6
:101570000BB60F9211242F933F934F935F936F936A
:101580007F938F939F93AF93BF93EF93FF9380E0ED
:1015900009DFFF91EF91BF91AF919F918F917F9163
:1015A0006F915F914F913F912F910F900BBE0F90D4
:1015B0000FBE0F901F9018951F920F920FB60F92AB
:1015C0000BB60F9211242F933F934F935F936F931A
:1015D0007F938F939F93AF93BF93EF93FF9381E09C
:1015E000E1DEFF91EF91BF91AF919F918F917F913C
:1015F0006F915F914F913F912F910F900BBE0F9084
:101600000FBE0F901F9018956F9364E06A95F1F7E5
:101610006F910197C9F708952F928F939F932FB6DB
:101620008091B0029091B10201968093B0029093A4
:10163000B10290E08091B202891F8093B202909132
:10164000B8029C5F9093B8028091B7028051974294
:10165000C0F09093B8028093B7028091B30290914A
:10166000B40201968093B3029093B40290E080910B
:10167000B502891F8093B5028091B602891F8093BD
:10168000B6022FBE9F918F912F901895CF93DF9325
:10169000EC0104C088EE93E0B7DF21972097D1F7E3
:1016A000DF91CF910895F2CF08958FEF64E041C0AC
:1016B00083E867E03ED0F9CF1F93182F982F9095BD
:1016C000991F9927991F85E8891B65E032D0812FE2
:1016D0008F7765E02ED01F9108956F9364E06A952F
:1016E000F1F76F910197C9F70895A1E0B0E0EAE73B
:1016F000FBE095C0182F249908C02C9906C02C9A9D
:101700008EE190E06983E9DF698184B1806A84B900
:101710002698812F837080656C7A862B8CBD81E042
:1017200012FF80E08DBD81E090E0B0DF2196E3E024
:1017300092C00F931F93082F162F0CB406FC03C002
:1017400080E064E0D2DF0CB404FC03C08CB580619F
:101750008CBD0EBD03C00CB404FE0AC00DB407FE60
:10176000FACF112319F0812F90E0B7DF8EB501C0B9
:1017700080E01F910F910895DB018F939F9377D0A5
:10178000BF91AF91A29F800D911DA39F900DB29F1D
:10179000900D1124089597FB072E16F4009406D09F
:1017A00077FD08D06ED007FC05D03EF4909581956A
:1017B0009F4F0895709561957F4F0895A1E21A2E6D
:1017C000AA1BBB1BFD010DC0AA1FBB1FEE1FFF1FE5
:1017D000A217B307E407F50720F0A21BB30BE40B35
:1017E000F50B661F771F881F991F1A9469F760957C
:1017F0007095809590959B01AC01BD01CF01089536
:101800002F923F924F925F926F927F928F929F9210
:10181000AF92BF92CF92DF92EF92FF920F931F93FE
:10182000CF93DF93CDB7DEB7CA1BDB0B0FB6F894AF
:10183000DEBF0FBECDBF09942A88398848885F84EF
:101840006E847D848C849B84AA84B984C884DF8060
:10185000EE80FD800C811B81AA81B981CE0FD11D44
:101860000FB6F894DEBF0FBECDBFED0108951DD0B9
:10187000A59F900DB49F900DA49F800D911D1124E4
:101880000895AA1BBB1B51E107C0AA1FBB1FA617C7
:10189000B70710F0A61BB70B881F991F5A95A9F719
:1018A00080959095BC01CD010895A29FB001B39F92
:1018B000C001A39F700D811D1124911DB29F700D59
:1018C000811D1124911D0895CF93DF9382309105DE
:1018D00010F482E090E0E0910103F091020320E037
:1018E00030E0A0E0B0E0309739F1408151814817F5
:1018F0005907B8F04817590771F4828193811097FE
:1019000029F013969C938E9312972CC09093020308
:101910008093010327C02115310531F04217530789
:1019200018F0A901DB0101C0EF019A01BD01DF013F
:101930000280F381E02DD7CF21153105F9F0281B66
:10194000390B2430310580F48A819B816115710542
:1019500021F0FB019383828304C090930203809360
:101960000103FE01329644C0FE01E20FF31F819392
:10197000919322503109398328833AC02091FF0284
:1019800030910003232B41F4209132013091330137
:10199000309300032093FF022091300130913101F8
:1019A0002115310541F42DB73EB7409134015091D6
:1019B0003501241B350BE091FF02F0910003E21783
:1019C000F307A0F42E1B3F0B2817390778F0AC0162
:1019D0004E5F5F4F2417350748F04E0F5F1F50933F
:1019E00000034093FF028193919302C0E0E0F0E096
:1019F000CF01DF91CF910895CF93DF93009709F442
:101A000087C0FC01329713821282C0910103D091EA
:101A10000203209781F420813181280F391F8091A2
:101A2000FF02909100038217930779F5F09300036A
:101A3000E093FF026DC0DE0120E030E0AE17BF078B
:101A400050F412964D915C9113979D0141155105EB
:101A500009F1DA01F3CFB383A28340815181840F6E
:101A6000951F8A179B0771F48D919C911197840F94
:101A7000951F02969183808312968D919C91139766
:101A8000938382832115310529F4F0930203E093B7
:101A900001033EC0D9011396FC93EE9312974D912A
:101AA0005D91A40FB51FEA17FB0779F4808191813E
:101AB000840F951F0296D90111969C938E93828173
:101AC000938113969C938E931297E0E0F0E08A81C5
:101AD0009B81009719F0FE01EC01F9CFCE0102962F
:101AE00028813981820F931F2091FF0230910003DA
:101AF0002817390769F4309729F4109202031092DD
:101B0000010302C013821282D0930003C093FF022C
:101B1000DF91CF9108950F931F93CF93DF93EC0143
:101B20008B01009731F46115710519F480E090E0A4
:101B300037C06EE070E081E090E06BD5FC0100976B
:101B4000A9F380E883830115110571F013870287DB
:101B500081E883838091030390910403892B21F40E
:101B6000F0930403E09303032097C9F0D187C08763
:101B70008381826083838091050390910603892B82
:101B800071F4F0930603E0930503809107039091AD
:101B90000803892B21F4F0930803E0930703CF0196
:101BA000DF91CF911F910F910895CF93DF93CDB720
:101BB000DEB7FE01359661917191AF018091050309
:101BC000909106037FD0DF91CF9108950F931F93DB
:101BD000CF93DF93E0910503F0910603238121FF6A
:101BE0001BC0EC0100E010E0899160910503709149
:101BF0000603DB011896ED91FC911997882331F0CB
:101C00000995892B89F30FEF1FEFEECF8AE0099535
:101C1000892B11F4C80102C08FEF9FEFDF91CF91A4
:101C20001F910F9108950F931F93CF93DF93CDB71B
:101C3000DEB72E970FB6F894DEBF0FBECDBF0D896D
:101C40001E8986E08C831A8309838FEF9FE79E832A
:101C50008D83AE01475E5F4F6F89788DCE0101960F
:101C600031D0EF81F885E00FF11F10822E960FB66C
:101C7000F894DEBF0FBECDBFDF91CF911F910F91C2
:101C80000895CF93DF93CDB7DEB72E970FB6F894B4
:101C9000DEBF0FBECDBF85E08C838B899C899A8384
:101CA0008983AE01495E5F4F6D897E89CE010196C1
:101CB00087D32E960FB6F894DEBF0FBECDBFDF914F
:101CC000CF9108952F923F924F925F926F927F92A1
:101CD0008F929F92AF92BF92CF92DF92EF92FF923C
:101CE0000F931F93CF93DF93CDB7DEB72C970FB62B
:101CF000F894DEBF0FBECDBF7C016B018A01FC01F1
:101D000017821682838181FFB0C1CE0101964C01FA
:101D1000F7019381F60193FD859193FF81916F0106
:101D2000882309F49EC1853239F493FD859193FF90
:101D300081916F01853221F4B70190E0F2D4E8CFB0
:101D4000512C312C20E02032A0F48B3269F030F499
:101D5000803259F0833269F420612CC08D3239F021
:101D6000803339F4216026C02260246023C02860BB
:101D700021C027FD27C030ED380F3A3078F426FF18
:101D800006C0FAE05F9E300D1124532E13C08AE086
:101D9000389E300D1124332E20620CC08E3221F477
:101DA00026FD5FC1206406C08C3611F4206802C095
:101DB000883641F4F60193FD859193FF81916F017F
:101DC0008111C1CF982F9F7D9554933028F40C5FDB
:101DD0001F4FFFE3F9830DC0833631F0833771F075
:101DE000833509F057C021C0F801808189830E5FD7
:101DF0001F4F44244394512C540114C03801F2E085
:101E00006F0E711CF801A080B18026FF03C0652D04
:101E100070E002C06FEF7FEFC5012C8739D42C0131
:101E200083012C852F77222E16C03801F2E06F0E29
:101E3000711CF801A080B18026FF03C0652D70E001
:101E400002C06FEF7FEFC5012C8710D42C012C85C9
:101E50002068222E830123FC19C0832D90E04816B0
:101E60005906A0F4B70180E290E05BD43A94F5CF34
:101E7000F50127FC859127FE81915F01B70190E074
:101E800050D431103A94F1E04F1A510841145104E2
:101E900079F7DEC0843611F0893631F5F80127FF75
:101EA00007C060817181828193810C5F1F4F08C0E0
:101EB00060817181882777FD8095982F0E5F1F4F75
:101EC0002F76B22E97FF09C09095809570956195F9
:101ED0007F4F8F4F9F4F2068B22E2AE030E0A40141
:101EE0006BD4A82EA81843C0853729F42F7EB22EB4
:101EF0002AE030E025C0F22FF97FBF2E8F36C1F0E7
:101F000018F4883579F0ADC0803719F0883721F0A2
:101F1000A8C02F2F2061B22EB4FE0DC08B2D84607F
:101F2000B82E09C024FF0AC09F2F9660B92E06C0A4
:101F300028E030E005C020E130E002C020E132E0DE
:101F4000F801B7FE07C060817181828193810C5FC7
:101F50001F4F06C06081718180E090E00E5F1F4FCF
:101F6000A4012AD4A82EA818FB2DFF77BF2EB6FEF9
:101F70000BC02B2D2E7FA51450F4B4FE0AC0B2FC6A
:101F800008C02B2D2E7E05C07A2C2B2D03C07A2C59
:101F900001C0752C24FF0DC0FE01EA0DF11D8081EA
:101FA000803311F4297E09C022FF06C07394739414
:101FB00004C0822F867809F0739423FD12C020FF9D
:101FC00006C05A2C731418F4530C5718732C73143E
:101FD00060F4B70180E290E02C87A3D373942C8542
:101FE000F6CF731410F4371801C0312C24FF11C040
:101FF000B70180E390E02C8794D32C8522FF16C094
:1020000021FF03C088E590E002C088E790E0B701B7
:102010000CC0822F867851F021FD02C080E201C001
:102020008BE227FD8DE2B70190E07BD3A51430F45D
:10203000B70180E390E075D35A94F8CFAA94F401E5
:10204000EA0DF11D8081B70190E06BD3A110F6CFAE
:10205000332009F45DCEB70180E290E062D33A9478
:10206000F7CFF7018681978102C08FEF9FEF2C9603
:102070000FB6F894DEBF0FBECDBFDF91CF911F9199
:102080000F91FF90EF90DF90CF90BF90AF909F9017
:102090008F907F906F905F904F903F902F9008951A
:1020A00020FD09C0FC0123FD05C022FF02C073838F
:1020B000628351834083089544FD10C046FD10C0E3
:1020C000DB01FC01AA0FBB1FEE1FFF1F1094D1F70D
:1020D0006A0F7B1F8E1F9F1F31E003C033E001C0DA
:1020E00034E0660F771F881F991F3150D1F7620FB8
:1020F000711D811D911D08950F931F93CF93DF9341
:102100008C01C801D0D2EC0197FD06C09CD2892B6E
:10211000C1F7B801CE0137D3CE01DF91CF911F9126
:102120000F9108958F929F92AF92CF92DF92EF928C
:10213000FF920F931F93CF93DF93EC01A62E4A01DA
:10214000022FB1D2AC0155274B32510521F04D324F
:10215000510549F40068AA9411F480E060C0CE01F2
:10216000A2D297FDFACF102F1D7F302F3073F1F4DC
:102170008033E1F4FF24FA94FA0C09F43DC0CE0157
:1021800092D297FD39C0382F3F7D383549F412641B
:10219000AA94AA9489F1CE0186D297FF07C02CC0D9
:1021A00006FF02C0126001C01261AF2CC12CD12CFD
:1021B000760120ED280F283078F014FF03C0BE010F
:1021C000E2D217C02A3040F016FFF9CF2F7D3FEE44
:1021D000320F3630A0F72750412FC701B6016CDF10
:1021E0006B017C011260AA9451F0CE015CD297FF82
:1021F000E0CF11FD04C0B1CFC12CD12C760117FF67
:1022000008C0F094E094D094C094C11CD11CE11C8F
:10221000F11C212FB701A601C40142DF81E0DF914B
:10222000CF911F910F91FF90EF90DF90CF90AF90E3
:102230009F908F9008957F928F929F92AF92BF92BE
:10224000CF92DF92EF92FF920F931F93CF93DF9382
:10225000CDB7DEB7A1970FB6F894DEBF0FBECDBFE6
:102260005C017A018E010F5F1F4F680180E2D80187
:102270001D928A95E9F7F501738040E050E0812CCA
:10228000B0E0912C81E090E0F90173FCA59173FE20
:10229000A1918F017A2F9F01A11103C080E090E0EE
:1022A0007BC0AE3519F44115510559F1E92DF0E027
:1022B000E417F5073CF4AD3569F1AD3219F4BB23F1
:1022C00019F103C0B11101C08A2EE72FE695E695FA
:1022D000E69586010E0F111DF801A72FA7708C013E
:1022E00002C0000F111FAA95E2F7D801B081BA2BE6
:1022F000B083781559F0781510F47F5FE6CF7150F0
:10230000E4CF9924939403C0B1E001C0B0E04F5FE3
:102310005F4FBACFBB2319F08E8180628E839110FC
:1023200003C09924939415C0F601CE0181962081B3
:1023300020952193E817F907D1F7F3CFE114F104C1
:1023400029F0D7018C93F70131967F016150F1F0AC
:10235000912CC50169A3A7D169A197FD15C0282FAC
:10236000269526952695F601E20FF11D208130E095
:10237000AC014770552702C0359527954A95E2F77D
:1023800020FDDCCFB501FFD1911088CFE114F1041D
:1023900011F0D7011C92C801A1960FB6F894DEBFC8
:1023A0000FBECDBFDF91CF911F910F91FF90EF90A6
:1023B000DF90CF90BF90AF909F908F907F900895C7
:1023C0004F925F927F928F929F92AF92BF92CF92E5
:1023D000DF92EF92FF920F931F93CF93DF931F92A1
:1023E000CDB7DEB78C012B017A01FC011782168272
:1023F000A12CF801D380F201D3FC8591D3FE819109
:10240000382F2F01882309F4EEC090E039831BD1C7
:102410003981892B19F0C8016FDEEBCF353241F4D9
:10242000F201D3FC3591D3FE31912F01353259F4AD
:10243000C801398338D1398197FDD3C03817C9F223
:10244000B801A1D1D0C03A3241F4D3FC3591D3FECA
:1024500031912F01BB24B39401C0B12C712C20ED1C
:10246000230F2A3088F4FB2DF260BF2E672D70E019
:1024700080E090E040E220DE762EF201D3FC359140
:10248000D3FE31912F01EBCFB1FE03C0711003C019
:10249000AAC077247A94383619F03C3661F014C01B
:1024A000F201D3FC3591D3FE31912F01383661F41E
:1024B000FB2DF860BF2E8B2D8460B82EF201D3FC6B
:1024C0003591D3FE31912F01332309F48CC0632F52
:1024D00070E08CE890E03983BED03981892B09F413
:1024E00082C0B0FC07C0F701C080D180C70102964E
:1024F0007C0102C0C12CD12C3E3649F4F801468142
:10250000578160E070E02B2DC601CADD72CF3336F3
:1025100099F4B1FC02C077247394C801C4D097FD2C
:1025200060C0C114D10429F0F6018083C601019670
:102530006C017A9491F751C03B3551F49201A60198
:10254000672DC80178DE2C01009709F046C040C015
:10255000C8013983D1DD398197FD43C03F3651F140
:1025600028F4343619F1393661F128C0333769F06F
:102570003537E1F023C0C114D10429F0F60180827F
:10258000C60101966C017A9459F0C8018CD04C01B7
:1025900097FD06C058D0892B71F3B801C401F3D060
:1025A000C114D104D1F0F601108217C0FB2DF062E6
:1025B000BF2E07C08B2D8061B82E03C09B2D906469
:1025C000B92E2B2DA601672DC801ACDD811105C0E8
:1025D000F8018381807329F406C0B0FC0ACFA3946C
:1025E00008CFAA2019F08A2D90E002C08FEF9FEF4C
:1025F0000F90DF91CF911F910F91FF90EF90DF909F
:10260000CF90BF90AF909F908F907F905F904F90B2
:1026100008950F931F93CF93DF93869F8001879F29
:10262000100D969F100D1124C8014ED9EC01009792
:1026300021F0A80160E070E024D0CE01DF91CF91BD
:102640001F910F910895911115C1803219F0895091
:102650008550D0F70895FC010590061621F0002062
:10266000D9F7C00108953197CF010895FC01059075
:10267000615070400110D8F7809590958E0F9F1F84
:102680000895DC0101C06D9341505040E0F708957A
:10269000FC016150704001900110D8F78095909531
:1026A0008E0F9F1F0895CF93DF93EC012B8120FFA6
:1026B00033C026FF0AC02F7B2B838E819F8101961A
:1026C0009F838E838A8190E029C022FF0FC0E8811A
:1026D000F9818081992787FD9095009719F42062F0
:1026E0002B831AC03196F983E8830EC0EA85FB85F7
:1026F000099597FF09C02B81019611F480E101C073
:1027000080E2822B8B8308C02E813F812F5F3F4F59
:102710003F832E83992702C08FEF9FEFDF91CF91E8
:1027200008950F931F93CF93DF93182F092FEB0179
:102730008B8181FD03C08FEF9FEF20C082FF10C00F
:102740004E815F812C813D81421753077CF4E881E3
:10275000F9819F012F5F3F4F39832883108306C083
:10276000E885F985812F0995892B29F72E813F81ED
:102770002F5F3F4F3F832E83812F902FDF91CF918B
:102780001F910F910895FB01238120FF12C026FDA8
:1027900010C08F3F3FEF930761F082832F7D20644D
:1027A0002383268137812150310937832683992756
:1027B00008958FEF9FEF0895FA01AA27283051F16D
:1027C000203181F1E8946F936E7F6E5F7F4F8F4F62
:1027D0009F4FAF4FB1E03ED0B4E03CD0670F781FC1
:1027E000891F9A1FA11D680F791F8A1F911DA11DA6
:1027F0006A0F711D811D911DA11D20D009F46894DF
:102800003F912AE0269F11243019305D3193DEF686
:10281000CF010895462F4770405D4193B3E00FD03C
:10282000C9F7F6CF462F4F70405D4A3318F0495D27
:1028300031FD4052419302D0A9F7EACFB4E0A6950A
:102840009795879577956795BA95C9F7009761052C
:10285000710508959B01AC010A2E06945795479582
:1028600037952795BA95C9F7620F731F841F951F77
:0E287000A01D0895992788270895F894FFCF9A
:10287E0001E803E803E80301021000000000000075
:10288E000000000000000000000000000000010039
:10289E000000000000000000FFFFFFFFFFFFFFFF32
:1028AE00000009032000523A2564200043616E6E39
:1028BE006F7420746F67676C65206E6567617469ED
:1028CE007665206D732E00436F6E76657274656447
:1028DE0020746F20746F67676C6520706572696F06
:1028EE00643A2025642E0A005553422053657269BE
:1028FE00616C20496E697469616C697A65640D0A50
:10290E00000D4D656E753A207B54505A7D207B52DA
:10291E004759417D203C696E743E3A200025632064
:10292E002563202564004F703A256320433A2563C2
:10293E0020563A25640D0A0042616420436F6C6F85
:10294E00722E20547279207B524759417D0D0A0018
:10295E005220746F67676C65733A20256C750D0A8B
:10296E00004720746F67676C65733A20256C750D90
:10297E000A005920746F67676C65733A20256C7571
:10298E000D0A00546F67676C657320523A256C759B
:10299E0020473A256C7520593A256C750D0A00446E
:1029AE00656661756C7420696E207028636F6C6F3C
:1029BE0072292E20486F773F0D0A004465666175B7
:1029CE006C7420696E207A28636F6C6F72292E20CA
:1029DE00486F773F0D0A00436F6D6D616E64206422
:1029EE006F6573206E6F7420636F6D707574652ED6
:0429FE000D0A0000BE
:00000001FF
